:020000040800F2
:100000004806002001010008151D00085D190008C0
:10001000691C0008D7010008352400080000000012
:10002000000000000000000000000000BD1D0008EE
:10003000F101000800000000551D0008091E00081D
:100040001B0100081B0100081B0100081B01000820
:100050001B0100081B0100081B0100081B01000810
:100060001B0100081B0100081B0100081B01000800
:100070001B0100081B0100081B0100081B010008F0
:100080001B0100081B0100081B0100081B010008E0
:100090001B0100081B0100081B0100081B010008D0
:1000A0001B010008891E00081B0100081B01000835
:1000B0001B0100081B010008000000001B010008D4
:1000C0001B01000800000000000000001B010008E8
:1000D00000000000512300085D230008000000001C
:1000E0001B0100081B0100081B010008DFF80CD0F1
:1000F00000F02AF800480047E924000848060020DC
:100100000648804706480047FEE7FEE7FEE7FEE7B1
:10011000FEE7FEE7FEE7FEE7FEE7FEE7851E0008D6
:10012000ED000008D2B201E000F8012B491EFBD21D
:1001300070470022F6E710B513460A4604461946F2
:10014000FFF7F0FF204610BD064C074D06E0E068C3
:1001500040F0010394E8070098471034AC42F6D30E
:10016000FFF7C8FF302700085027000870B5044685
:1001700000688168C943C90717D1816821F001016E
:10018000816000F0D9FA05460AE000BF00F0D4FA19
:10019000401B022804D920688068C043C00706D0ED
:1001A00020688068C043C007F0D0002070BDA06AFE
:1001B00040F01000A062E06A40F00100E06201201F
:1001C00070BD00210A4602E04254491CC9B2435C9A
:1001D000002BF9D17047FEE7034610B50020024618
:1001E00003E09C5C6040521CD2B28A42F9D310BD3D
:1001F000704772B6FEE70000F8B50024009490F84E
:1002000024202546012A12D0012280F824204A68A1
:100210001F23072A0DD20668776B521E02EB82025B
:1002200093409F430B6893401F43776319E002207C
:10023000F8BD06680D2A0AD2376BD21F02EB820284
:1002400093409F430B6893401F43376309E0F76A6D
:100250000D3A02EB820293409F430B6893401F4389
:10026000F7620A68072306680A2A0AD3F7680A3A77
:1002700002EB420293409F438B6893401F43F76019
:1002800008E0376902EB420293409F438B6893403A
:100290001F4337610A68102A01D0112A20D1124B5E
:1002A00002689A4217D193681B0219D4936843F4E9
:1002B000000393600968102912D10C490C4A09689F
:1002C000B1FBF2F101EB8101490000E0491E009110
:1002D0000029FBD104E0816A41F020018162012400
:1002E00080F824502046F8BD00240140240000205E
:1002F00040420F002DE9F0414FF0000704003D4659
:100300007ED0A06A002628B9E66284F824602046E0
:1003100000F07EF82046FFF729FFA16A01F01001E6
:10032000014304D0A06A40F01000A06268E0A16A16
:1003300021F4885141F00201A1626268E169237BE6
:100340000A4347EA43010A43A1684FF48077B94260
:1003500008D0012906D0002194F814C0BCF1010F87
:1003600002D00AE03946F7E7F3B1A36A43F020036D
:10037000A362E36A43F00103E3622368D3F804C095
:100380002CF4694C4CEA010CC3F804C0236899684A
:10039000DFF870C001EA0C0111439960A168B9420D
:1003A0000BD0012909D00CE0DFF85CC0A3690CEB8D
:1003B00043330B4343F40061DFE7218A0D05A5F5C4
:1003C00080152168CB6A23F470032B43CB6221682C
:1003D00089680E4B1940914208D1E662A16A21F06A
:1003E000020141F00101A162BDE8F081A06A20F0A4
:1003F000020040F01000A062E06A40F00100E062FC
:100400000120F1E7FDF7E1FF00E0FFFFFE0E1FFF17
:1004100000B585B00021009101910291039100681F
:100420000E49884218D10E48816941F400718161FA
:10043000816901F400710491816941F008018161D1
:100440008069694600F008000490022000900320B3
:100450000190044800F08AF805B000BD0024014076
:1004600000100240000C014010B590F8211000224D
:10047000022905D00421816380F82020012010BDCD
:1004800001680B6823F00E030B6001680B6823F012
:1004900001030B6090F84030C46B012101FA03F3B3
:1004A000636080F8211080F82020104610BD000005
:1004B00010B590F821100024022903D00421816393
:1004C00001243DE001680A6822F00E020A6001681A
:1004D0000A6822F001020A601A4A0168914201D1B9
:1004E000012121E0174A1432914201D110211BE071
:1004F000144A2832914201D1891515E0114A3C3243
:10050000914201D189140FE00E4A5032914202D13A
:100510004FF4803108E00B4A6432914202D14FF42B
:10052000801101E04FF08071064A083A51600121C4
:1005300080F82110002180F82010416B01B188471C
:10054000204610BD0800024070B5044600F0F4F8E3
:100550000546601C02D004480078044400F0ECF822
:10056000401BA042FAD370BD180000202DE9F84FBF
:10057000DFF89C910024A9F1040B23460F2709F111
:10058000040AABF1040EBBE00125A5402A40AA42B3
:1005900076D1DFF880C14E68A6EB0C0866452BD0FB
:1005A0000DDC032E34D005DC36B3012E19D0022E1B
:1005B0002FD11BE0112E16D0122E2AD119E0B8F53A
:1005C000881F19D006DCB8F5803F15D0B8F5801F1C
:1005D0001FD111E0B8F5001F0ED0B8F5041F18D1D7
:1005E0000AE0CB6815E0CB681B1D12E0CB6808332E
:1005F0000FE0CB680C330CE08B682BB1012B4FF074
:10060000080303D0456104E0042302E0056100E033
:100610000023FF2A01D8064601E000F104064FEA54
:10062000840501D9A5F12005D6F8008007FA05FC5C
:1006300028EA0C0803FA05F548EA0508C6F8008020
:100640004D68ED005BD5344DAE6946F00106AE61F4
:10065000AD6924F0030605F0010500952F4D06EB6A
:10066000050CDCF80850A607360F07FA06F825EA4D
:100670000805DFF8AC80404503D14FF0000810E0DA
:100680003DE0DFF8A080404502D14FF0010808E0CE
:10069000DFF89480404502D14FF0020801E04FF0AE
:1006A000030808FA06F848EA0508CCF808804D68FF
:1006B000D9F80060ED024D4601D5164300E096439F
:1006C0002E604D68DAF80060AD02554601D516433C
:1006D00000E096432E604D68DBF80060AD035D4698
:1006E00001D5164300E096432E604D68DEF80060A9
:1006F000ED03754601D5164300E096432E60641C59
:100700000A6832FA04F57FF43FAFBDE8F88F0000C5
:1007100008040140000011100010024000000140D8
:1007200000080140000C0140001001400AB10161C5
:1007300070470904FBE7000001488068704700002B
:1007400018000020024881680278114481607047D7
:1007500018000020074810B5016841F01001016041
:10076000032000F075F80F2000F006F800F024F8E0
:10077000002010BD0020024070B50D4D04464FF41E
:100780007A712878B1FBF0F00A490968B1FBF0F002
:1007900000F052FB48B9102C07D200222146501E0F
:1007A00000F036F800206C6070BD012070BD0000C4
:1007B00018000020240000200C4808B5816941F091
:1007C00001018161816901F001010091C16941F07C
:1007D0008051C161C06900F08050009004484168B8
:1007E00021F0E06141F00071416008BD001002405D
:1007F00000000140002809DB00F01F0201219140A8
:100800004009800000F1E020C0F8001170470000AE
:10081000F0B40E4B1B680C46C3F30223C3F107056B
:10082000042D00D90425191D072901D2002300E059
:10083000DB1E012606FA05F1491E214099409E4023
:10084000761E16403143F0BC01F012BE0CED00E004
:10085000064900F0070208684FF6FF03184040EA17
:100860000220034A10430860704700000CED00E0CE
:100870000000FA052DE9F84305460078354CC0071D
:1008800054D0E0690026C00008D4E06940F08050F0
:10089000E061E069012600F0805000902E48016878
:1008A000C90512D40168804641F480710160FFF7E8
:1008B00043FF074605E000BFFFF73EFFC01B64286B
:1008C00023D8D8F80000C005F6D5206A10F440708F
:1008D00021D0A98801F4407181421CD0206A1F49AF
:1008E000012220F440700A6000220A602062C007E2
:1008F00011D0FFF721FF074641F2883808E000BF1A
:10090000FFF71AFFC11B414502D90320BDE8F88358
:10091000206A8007F4D5206A696820F44070084393
:1009200020621EB1E06920F08050E06128788007E5
:1009300005D56068A96820F44040084360602878C5
:10094000C00605D56068E96820F48000084360604F
:100950000020DBE7001002400070004040044242EB
:100960002DE9F0470F46050061D0434E306800F096
:100970000700B84209D2306820F0070038433060E1
:10098000306800F00700B84251D128683B4C81071D
:1009900012D5400703D5606840F4E06060602878B5
:1009A000000703D5606840F4605060606068A96823
:1009B00020F0F000084360602878C00728D06868FD
:1009C000012810D02168022810D0890700292EDACA
:1009D000616821F0030101436160FFF7ADFE8046CD
:1009E00041F288390DE021688903EFE78901EDE7DD
:1009F000FFF7A2FEA0EB0801494502D90320BDE89C
:100A0000F0876068696800F00C00B0EB810FEFD1EF
:100A1000306800F00700B8420BD9306820F00700BA
:100A200038433060306800F00700B84201D0012040
:100A3000E5E72878400705D56068E96820F4E060BC
:100A4000084360602878000706D56068296920F4AB
:100A5000605040EAC100606000F038F86168084A00
:100A6000C1F30311515CC84006490860064800689C
:100A7000FFF782FE0020C2E7002002400010024083
:100A8000F6260008240000201C0000200448054928
:100A900000684968044AC1F30221515CC8407047AC
:100AA00024000020001002400627000804480549E1
:100AB00000684968044AC1F3C221515CC8407047CC
:100AC0002400002000100240062700080E4A51684A
:100AD0000E4801F00C03042B11D0082B0FD10C4849
:100AE000C1F38343C903C05C0AD55168084AC1F306
:100AF0004041921E515C054A5043B0FBF1F07047F3
:100B000004494843704700000010024000127A0078
:100B1000E626000800093D002DE9F84F040070D0DA
:100B20002078C04DC00749D06868C0F38100012813
:100B300007D06868C0F38100022809D16868C00343
:100B400006D52868800339D560680028E7D035E0ED
:100B50006068B0F5803F0BD010B1B0F5A02F11D078
:100B6000286820F480302860286820F4802002E083
:100B7000286840F480302860606890B1FFF7DCFDA1
:100B800006460AE0286840F480202860F0E700BFAD
:100B9000FFF7D2FD801B642873D828688003F7D53F
:100BA0000CE0FFF7C9FD064605E000BFFFF7C4FDF6
:100BB000801B6428F0D828688003F7D420789A4EE8
:100BC00080074FF001094FF0000839D5686810F030
:100BD0000C0F07D06868C0F38100022809D168684B
:100BE000C00306D42868800714D52069012808D1DD
:100BF00010E02069B0B1C6F80090FFF79DFD0746F0
:100C000005E00AE1FFF798FDC01B0228C4D8286858
:100C10008007F7D52868616920F0F80040EAC10034
:100C200028600DE0C6F80080FFF786FD074604E067
:100C3000FFF782FDC01B022823D828688007F7D45D
:100C4000207800072CD57948A169D9B1C0F8009067
:100C5000FFF772FD074604E0FFF76EFDC01B022898
:100C60000FD8686A8007F7D571484FF4FA510068C9
:100C7000B0FBF1F0009000BF0098411E0091FAD245
:100C80000EE080E0C0F80080FFF756FD074604E064
:100C9000FFF752FDC01B022875D8686A8007F7D499
:100CA0002078400760D5E8690027C00008D4E869CB
:100CB00040F08050E861E869012700F08050009022
:100CC0005C480168C90513D40168834641F480710A
:100CD0000160FFF731FD824606E000BFFFF72CFD03
:100CE000A0EB0A0064284ED8DBF80000C005F5D55B
:100CF000E06801280AD008B1052813D0286A20F03E
:100D000001002862286A20F0040002E0286A40F00E
:100D100001002862E06841F2883B98B1FFF70CFDC2
:100D200082460BE0286A40F004002862EEE700BF2C
:100D3000FFF702FDA0EB0A0159455AD8286A80073F
:100D4000F6D50CE0FFF7F8FC824605E0FFF7F4FC6F
:100D5000A0EB0A0159454CD8286A8007F6D41FB188
:100D6000E86920F08050E861E06988B36968C1F300
:100D70008101022944D00228C6F8608004D0FFF720
:100D8000DBFC044638E034E0FFF7D6FC074604E01D
:100D9000FFF7D2FCC01B02282BD828688001F7D4AB
:100DA000206AB0F5803F05D16868A16820F4003062
:100DB00008436860D4E908010843696821F47411A4
:100DC00008436860C6F86090FFF7B6FC044606E08A
:100DD00025E000BFFFF7B0FC001B022809D82868F7
:100DE0008001F7D51BE000BFFFF7A6FC001B02281F
:100DF00002D90320BDE8F88F28688001F4D40EE002
:100E00000128F7D06868226A00F48031914204D149
:100E1000616A00F47010884201D00120EAE70020E6
:100E2000E8E7000000100240000042428004424215
:100E3000240000200070004010B5401EB0F1807FFB
:100E400001D3012010BD4FF0E02460610F21601735
:100E500001F00EFB0020A06107202061002010BDE2
:100E60007047704770B590F83C20012A23D00124C8
:100E700080F83C40022280F83D2003685A689D6853
:100E800022F070060A6832435A600C4B02689A429C
:100E900005D0B2F1804F02D0094B9A4204D1496883
:100EA00025F080031943916080F83D40002180F8CF
:100EB0003C10084670BD022070BD0000002C0140AF
:100EC0000004004010B5040003D094F83D0010B1B8
:100ED00007E0012010BD002084F83C00204600F00F
:100EE0001FF8022084F83D00211D206800F0D2FF89
:100EF000012084F8460084F83E0084F83F0084F81E
:100F0000400084F8410084F8420084F8430084F8EB
:100F1000440084F8450084F83D00002010BD000026
:100F200008B500680B49884212D10B48816941F429
:100F3000006181618069002200F400600090114628
:100F40001920FFF765FCBDE808401920FFF752BCE7
:100F500008BD0000002C01400010024090F83D1038
:100F6000012901D001207047022180F83D1001685D
:100F7000CA6842F00102CA6000680A49884205D086
:100F8000B0F1804F02D00849884204D1816801F055
:100F90000701062903D0016841F00101016000202A
:100FA00070470000002C01400004004070B504466A
:100FB00090F83C000025012817D0012684F83C60F9
:100FC000022084F83D002068826822F0770222F433
:100FD0007F4282600868502838D00DDC20284FD02E
:100FE00005DC90B3102811D14AE0022070BD3028F2
:100FF00046D040280AD13BE060282FD070280DD081
:10100000B0F5805F03D0B0F5005F12D0012584F801
:101010003D60002084F83C00284670BDCB68D1E9D3
:101020000121206800F071FF2068816841F077019C
:1010300009E0CB68D1E90121206800F066FF206853
:10104000816841F480418160E1E719E0CA6849683C
:10105000206801F00FF85021206806E0CA6849684E
:10106000206801F018F86021206800F058FFCEE7F2
:10107000CA684968206800F0FDFF40212068F4E755
:10108000226801461046F0E7704770B504460068D4
:1010900001694FF00005C943890715D4C168C943E8
:1010A000890711D4E91E0161012020772068806939
:1010B0008007204602D0FFF7E7FF04E000F0BCF80D
:1010C000204600F05FF9257720680169C943490788
:1010D00017D4C168C943490713D46FF004010161F3
:1010E000022020772068806910F4407F204602D0DB
:1010F000FFF7CAFF04E000F09FF8204600F042F935
:10110000257720680169C943090716D4C168C94316
:10111000090712D46FF008010161042020772068CC
:10112000C0698007204602D0FFF7AEFF04E000F060
:1011300083F8204600F026F9257720680169C94325
:10114000C90617D4C168C943C90613D46FF010018A
:101150000161082020772068C06910F4407F204694
:1011600002D0FFF791FF04E000F066F8204600F09F
:1011700009F9257720680169C943C90708D1C16801
:10118000C943C90704D1891E0161204600F046F910
:1011900020680169C943090609D4C168C943090621
:1011A00005D46FF0800101612046FFF759FE2068E9
:1011B0000169C943490609D4C168C943490605D430
:1011C0006FF040010161204600F068F92068016974
:1011D000C94389060BD4C168C943890607D46FF097
:1011E000200101612046BDE87040FFF73ABE70BDA6
:1011F00000B585B000210091019102910391006832
:10120000B0F1804F11D10A48816941F00401816138
:101210008069694600F004000490032000900220D9
:10122000019003900348FFF7A1F905B000BD00004D
:101230000010024000080140704770B5044690F865
:101240003C0000260D4601280FD0012084F83C0008
:101250006AB1042A1DD0082A2FD00C2A3FD00126BB
:10126000002084F83C00304670BD022070BD20682C
:1012700000F05EFE2068816941F00801816120680C
:10128000816921F004018161206881692A69114323
:1012900011E0206800F074FE2068816941F400616B
:1012A00081612068816921F48061816120688169A0
:1012B0002A6941EA02218161D2E7206800F08CFEB0
:1012C0002068C16941F00801C1612068C16921F04D
:1012D0000401C1612068C1692A69114311E02068D5
:1012E00000F0A6FE2068C16941F40061C161206878
:1012F000C16921F48061C1612068C1692A6941EA3C
:101300000221C161ACE710B5040003D094F83D00A0
:1013100010B107E0012010BD002084F83C002046F9
:1013200000F01EF8022084F83D00211D206800F026
:10133000B1FD012084F8460084F83E0084F83F00A7
:1013400084F8400084F8410084F8420084F84300A7
:1013500084F8440084F8450084F83D00002010BD66
:1013600008B50068B0F1804F08D10548C16941F067
:101370000101C161C06900F00100009008BD0000DA
:10138000001002407047000010B50446022249B127
:1013900004290ED0082913D094F84100012816D052
:1013A000012010BD94F83E000128F9D184F83E20B8
:1013B0000FE094F83F000128F2D184F83F2008E0C4
:1013C00094F840000128EBD184F8402001E084F833
:1013D00041200122206800F08BFD0E4920688842E0
:1013E00003D1426C42F4004242642068884205D036
:1013F000B0F1804F02D00849884204D1816801F0E1
:101400000701062903D0016841F0010101600020B5
:1014100010BD0000002C014000040040194910B527
:1014200088422DD1184C40F6B8316068401C60608D
:10143000884206D240F2E7325043B0FBF1F080B26E
:1014400001E040F2E73000F04BFC104841F28831F7
:101450000068884201D90E4806E00E4A5043B0FBAE
:10146000F1F042F21071084420606168814202D9B3
:10147000002000F035FC08486168814200D36060BC
:1014800010BD0000AC0000202C0000201400002043
:10149000C0270900B000090040420F0070477047A4
:1014A00070470000F8B5016804460868CA684B69CF
:1014B00010F00F0F4FF000055AD003F0010602F4B0
:1014C0009077374365D0C10705D0D10503D5616C4E
:1014D00041F001016164410705D5D90703D0616C72
:1014E00041F002016164810705D5D90703D0616C21
:1014F00041F004016164010707D502F02001314386
:1015000003D0616C41F008016164616C00293BD03B
:10151000800604D5900602D5204600F004FE20681F
:101520004069616CC0F3801001F00801014320465E
:101530002BD000F0D1FD20684069400621D52068FD
:10154000143050E8001F21F0400140E80012002A4A
:10155000F5D1E06BA8B16D494163E06BFEF7A8FFE0
:10156000002811D0E06B416B01B0BDE8F0400847A6
:1015700083060ED593060CD52046BDE8F84000F052
:10158000D2BD2046FFF78CFFF8BDFFF789FF6564E9
:10159000F8BD266B2023012E7CD1C6067AD5D6064F
:1015A00078D508684868009048694FF00206400600
:1015B00040D5E16B086840680004000CE8D0A28DBB
:1015C0008242E5D9E085886920282DD020680C303A
:1015D00050E8001F21F4807140E80012002AF5D184
:1015E0002168143151E8000F20F0010041E80002A9
:1015F000002AF5D12068143050E8001F21F0400186
:1016000040E80012002AF5D184F8423025632068B2
:101610000C3050E8001F21F0100140E80012002AB1
:10162000F5D1E06BFEF720FF6663A08DE18D401AD7
:1016300081B22AE0A08DE18D401A81B2E08D0028B0
:10164000A6D00029A4D022680C3252E8000F20F462
:10165000907042E80007002FF5D12068143050E860
:10166000002F22F0010240E80027002FF5D184F876
:101670004230256320680C3050E8002F22F0100221
:1016800040E80023002BF5D166632046FFF707FFF3
:10169000F8BDFFE705062BD5150629D594F84100BE
:1016A0002128F5D1A068B0F5805F01D12069B0B1E3
:1016B000206A411C2162216800784860E08C401E4D
:1016C0000004000CE084E3D12068C16821F08001AF
:1016D000C1602068C16841F04001C160D8E7206A5C
:1016E0000088C0F308004860206A801C2062E5E79B
:1016F0004006CDD55006CBD5CA68204622F0400220
:10170000CA6084F8413000F028F9C1E7C920000818
:1017100070B5040004D094F84100002510B106E033
:10172000012070BD84F84050204600F023F82420AA
:1017300084F841002068C16821F40051C16020464E
:1017400000F052FD2068016921F490410161206898
:10175000416921F02A0141612068C16841F40051CA
:10176000C1606564202084F8410084F8420065630C
:10177000002070BD70B586B00024009401940294DE
:1017800003942E4E03682E49022003222D4DB342AE
:1017900026D18B6943F480438B618B6903F48043CA
:1017A00004938B6943F004038B618969039201F010
:1017B000040104910102CDE9001069462846FEF7B4
:1017C000D5FE2815CDE90004694628460294FEF7A7
:1017D000CDFE002211462520FFF71AF8252028E02B
:1017E000194EB34227D1CB6943F40033CB61CB69A7
:1017F00003F4003304938B6943F004038B6189691C
:10180000039201F0040104910421CDE9001069461E
:101810002846FEF7ABFE0820CDE9000469462846BD
:101820000294FEF7A3FE002211462620FEF7F0FFE9
:101830002620FEF7DFFF06B070BD00000038014033
:1018400000100240000801400044004090F842307F
:10185000202B01D00220704721B11AB1002303636D
:1018600000F01EBD0120704710B5124C207900F029
:101870007BFD6071012808D0022802D0032806D021
:1018800010E0207804280DD0032020700AE0207892
:101890000021042805D1084A1068401E1060002865
:1018A00000DC217003490122BDE81040091D0348F6
:1018B000FFF7CCBF340000200C0000203C010020CA
:1018C0002DE9F843044690F841001F4616460D46A0
:1018D000202802D00220BDE8F8837DB176B1002037
:1018E0006064212084F84100FEF726FFA68480462C
:1018F000E684A068B0F5805F02D003E00120EAE74B
:10190000206910B12E4600250EE000260CE0802153
:10191000204600F0E0FCA0B9AEB116F8010B21683A
:101920004860E08C401EE084E08C43464FF00002AB
:1019300000970028EBD14FF04001204600F0CBFC8F
:1019400030B10320C7E735F8020BC0F30800E6E723
:10195000202084F841000020BDE77047FEE700002A
:101960002DE9F0414FF40051154B4D10154EDFF8A5
:101970005880164C4F1188B101281FD100221846FB
:10198000FEF7D4FE002229463046FEF7CFFE0022A5
:1019900039464046FEF7CAFE01200EE001221846F5
:1019A000FEF7C4FE012229463046FEF7BFFE0122A3
:1019B00039464046FEF7BAFE00202070BDE8F081AF
:1019C00000100140000C0140000801401000002000
:1019D0003EB500211148009101910F4A0291026029
:1019E00001248160047301754FF460220461C261B7
:1019F0004160FEF77FFC08B1FEF7FBFB0920CDE953
:101A000000040320029069460448FEF7F5FB002815
:101A100001D0FEF7EEFB3EBD002401407C0000201B
:101A20002DE9F04786B000252D48009501950295D7
:101A30000395816941F010018161816901F0100114
:101A40000491816941F020018161816901F02001E7
:101A50000491816941F004018161816901F004010F
:101A60000491816941F0080181618069012200F0DF
:101A70000800DFF870805403049021464046FEF7CA
:101A800055FE0122DFF86090160331464846FEF706
:101A90004DFE0122DFF854A0170239465046FEF7EA
:101AA00045FE009401240320CDE9024069460194DB
:101AB0004046FEF75BFDCDE900640226CDE9025603
:101AC00069464846FEF752FD01AA009782E8700079
:101AD00069465046FEF74AFD06B0BDE8F0870000B3
:101AE0000010024000100140000C014000080140BD
:101AF00010B586B000241748009401940294039412
:101B000004941349059401604721C0E9011440F28F
:101B1000E731C0E9031444618461FFF7D3F908B1E8
:101B2000FEF767FB4FF48050009069460948FFF7C5
:101B30003DFA08B1FEF75DFB049404A9054805943D
:101B4000FFF790F9002801D0FEF753FB06B010BD57
:101B5000002C0140AC00002010B58AB0002407948E
:101B60001C2168460894FEF7E4FA1A484FF08041B9
:101B700001604721C0E9011440F2E731C0E90314D4
:101B80008461FFF7C0FB08B1FEF733FB079407A998
:101B900010480894FFF766F908B1FEF72AFB702099
:101BA000CDE900040420049000226946029409480B
:101BB000FFF743FB08B1FEF71CFB0422694605480A
:101BC000FFF73BFB08B1FEF714FB0248FFF710FBE1
:101BD0000AB010BDF400002010B5144C12480C21BE
:101BE00020604FF4165060600020A060E060C4E9FF
:101BF0000401A061E0612046FFF78AFD08B1FEF70D
:101C0000F8FA00F0DDF8206801684906FCD54FF4C9
:101C1000E13060600548FFF77BFD002803D0BDE898
:101C20001040FEF7E6BA10BD003801403C0100202C
:101C30000C4810B50A4901604FF41651416000216B
:101C400081600C22C160C0E904128161C161FFF7AB
:101C50005FFD002803D0BDE81040FEF7CABA10BDF2
:101C60000044004084010020FEE70000642807D003
:101C70000449085C0449012801D0002800D14870BB
:101C8000704700001E27000828000020F0B4124C06
:101C90000546642000232478104E16E0F75CAF421E
:101CA00011D1062B05D0032B07D0072B09D01846DE
:101CB0000DE0C92907D1062009E0D52A03D1032068
:101CC00005E0B62A06D05B1CDBB2A342E6D3F0BC2B
:101CD000FFF7CCBF0720FAE7280000200E270008F6
:101CE00030B5040040F2E7354FF080430BD00022BE
:101CF0000121184600F00FF82246BDE830400221CD
:101D0000184600F008B82A460121184600F003F8EA
:101D10002A46F2E7FEE7012907D0022907D0032966
:101D200007D0042900D10264704742637047826380
:101D30007047C2637047000010B500210448FFF7E8
:101D400023FBBDE8104004210148FFF71DBB000044
:101D5000F40000207047000070B50B4C04250021F2
:101D600004F8205F61701121A170E07006482946D7
:101D700020300646FEF730FA207129463046BDE88D
:101D8000704000F031BB0000F401002070B50A4C37
:101D90000325002004F8205F294660701020A07001
:101DA000054820300646FEF717FAE070294630460F
:101DB000BDE8704000F018BBF4010020704700003F
:101DC00070B5104C0A25002004F8205F2C216070AB
:101DD000A170E07001212171C2216171A071982070
:101DE000E07124202072312060720648294620309C
:101DF0000646FEF7F1F9A07229463046BDE870406C
:101E000000F0F2BAF4010020FEF79CBC30B593B0AC
:101E100028216846FEF78DF914210AA8FEF789F9F2
:101E2000002501200F9510951195010412958DE85C
:101E3000230004904FF4E010CDE908100224079429
:101E40006846FEF769FE08B172B6FEE70AA90F20E0
:101E500081E831004FF48060CDE90D0502210AA828
:101E6000FEF77EFD08B172B6FEE74FF40040119018
:101E70000F940FA8FEF7FEFC002801D072B6FEE713
:101E800013B030BD704700000148FFF7FEB80000F6
:101E9000AC00002070B50268134B144C4FF0804624
:101EA000984203D0B04201D0A04203D122F0700585
:101EB0004A682A43984203D0B04201D0A04203D1DD
:101EC00022F44074CA6822434C6922F08002224303
:101ED00002608A68C2620A688262984201D1096916
:101EE00001630121416170BD002C014000040040EC
:101EF00010B501F01F030121046A99408C4304626C
:101F0000016A9A401143016210BD10B5846842EA2B
:101F1000032224F47F440A432243826010BD826876
:101F200022F070020A4342F007018160704700000E
:101F300030B5036A026A22F00102026242688469D3
:101F400024F073050C682C4323F002058B682B43A7
:101F50000A4DA8420BD123F00805CB6822F4407249
:101F60002B434D6923F0040315438A692A434260D9
:101F7000846149684163036230BD0000002C014068
:101F800030B5026A036A23F0100303624368846970
:101F90000D6824F4E64444EA05248D6822F020020A
:101FA00042EA05120B4DA8420ED1CD6822F0800204
:101FB00042EA05124D6923F4406343EA85038D69C3
:101FC00022F0400243EA85034360846149688163EB
:101FD000026230BD002C014030B5036A026A22F46F
:101FE000807202624268C46923F4007324F07305AE
:101FF0000C682C438D6843EA05230C4DA8420ED192
:10200000CD6823F4006343EA05234D6922F440526E
:1020100042EA05128D6923F4806342EA05124260A8
:10202000C4614968C163036230BD0000002C0140F7
:1020300030B5046A026A22F4805202624268C369BF
:102040000D6823F4E64343EA05238D6824F4005425
:1020500044EA0534064DA84204D14D6922F4804279
:1020600042EA85124260C36149680164046230BD7E
:10207000002C014010B5036A046A24F001040462D4
:10208000846924F0F00444EA021423F00A020A43AB
:102090008461026210BD10B5036A046A24F0100462
:1020A0000462846923F0A00324F4704444EA0232F9
:1020B00043EA01118261016210BD00000148FEF790
:1020C0004DBF0000AC00002010B5406A0021C18562
:1020D000C184FFF7E5F910BD01680C3151E8002F0C
:1020E00022F4907241E80023002BF5D101681431ED
:1020F00051E8002F22F0010241E80023002BF5D126
:10210000016B012909D101680C3151E8002F22F03F
:10211000100241E80023002BF5D1202180F8421065
:1021200000210163704708B590F84210222901D0C0
:10213000022008BD82684FF480539A4201D10169A0
:1021400021B1816A9A421BD04AB10AE00268816AD1
:102150005268C2F308020A80816A891C08E0026999
:1021600072B10268526802F07F020A70816A491CEB
:102170008162C18D491E0904090CC18503D01BE091
:1021800002685268F1E70168CA6822F02002CA605A
:102190000168CA6822F48072CA6001684A6922F044
:1021A00001024A61202180F8421000214163026B44
:1021B000012A03D0FFF758FB002008BD0163016826
:1021C0000C3151E8002F22F0100241E80023002BCF
:1021D000F5D101680A68D20602D50A6849680091FB
:1021E000818DFFF75CF9E7E770B504460068016987
:1021F000E26821F44051114301612169A06808435C
:10220000616908432168CA6841F20C639A4302433A
:10221000CA6020684169A26921F44071114341619B
:102220001E492068884202D1FEF740FC01E0FEF71B
:102230002DFC00EBC00101EB0012606864218000FE
:10224000B2FBF0F3B3FBF1F36FF018067343B2FB8C
:10225000F0F5B2FBF0F605EB8305322303EB051531
:10226000B5FBF1F5B6FBF1F605F0F00505EB06154B
:10227000B2FBF0F6B2FBF0F0B0FBF1F06FF0180239
:10228000504306EB800003EB0010B0FBF1F0216837
:1022900000F00F002844886070BD00000038014045
:1022A00081628285C28500214164222180F842102A
:1022B000016921B10168CA6842F48072CA6001688C
:1022C0004A6942F001024A610068C16841F0200198
:1022D000C160002070472DE9F041984617460E4630
:1022E0000446069D27E0681C25D02DB1FEF724FA90
:1022F000A0EB0800A8421ED920680C3050E8001F4F
:1023000021F4D07140E80012002AF5D12068143081
:1023100050E8001F21F0010140E80012002AF5D129
:10232000202084F8410084F84200002084F8400016
:102330000320BDE8F0812068006836EA000004D080
:102340000020B842CFD00020F3E70120F9E70000D9
:102350000148FFF7A7B800003C0100200148FFF743
:10236000A1B80000840100201D4910B54B7800225F
:102370005BB18C787CB11B4B012C0ED9641E8C7028
:10238000CA789854521CCA7012E07F2810D10120DC
:1023900048708A70F7E788700AE08A7011484A70BE
:1023A0005C788078902C05D0912C06D0AC2C11D084
:1023B000002010BD78B9022010BD60B9CA70C8787D
:1023C0001A18401C547AC0B282F84240C8701028D3
:1023D000F5D302E008B1032010BD012010BD0000BC
:1023E00034000020F4010020F0B585B000237F24E4
:1023F0008DF800401A466D46491C0DE0AF18865C0A
:102400007E705B1C865CDBB27F2E03D1521CD2B285
:10241000AE187470521CD2B28B42EFD3521CD2B29F
:102420004FF6FF7329460248FFF74AFA05B0F0BDA0
:102430003C010020FEE7000070B5054600244FF681
:10244000FF7607E02919334601220448FFF738FADE
:10245000641CA4B2285D0028F4D170BD8401002062
:10246000014A024900F023B8D12400083C000020B2
:102470000907090E002804DB00F1E02080F80014B1
:10248000704700F00F0000F1E02080F8141D704745
:1024900002E008C8121F08C1002AFAD1704770472D
:1024A000002001E001C1121F002AFBD170472DE975
:1024B000F04116460F460446002503E03946B04772
:1024C000641C6D1C20780028F8D12846BDE8F081F6
:1024D00013B54FF6FF73012269460248FFF7F0F982
:1024E00000981CBD8401002008B5FEF733F9FFF702
:1024F0008DFCFFF795FAFFF76FFBFFF799FBFFF7EE
:1025000067FAFFF729FBFFF7F3FA0020FFF728FA35
:10251000FFF712FC0020FFF7E3FB01226649674842
:10252000FFF794F9664D4FF0030985F80090FFF727
:10253000C5FD664FDFF88CB1DFF88CA107F14200D2
:10254000634C002600902878032804D0012813D07B
:1025500002287CD098E00098FDF733FE207A21799C
:102560000844C0B2FFF7F8FB544800680168490608
:10257000FCD5022028709BE0606810B997F84210E3
:1025800059B1C11C0DD0022849DD0120FFF7E8F93F
:102590009BF8000001282CD030E06FF00200606052
:1025A0005AE097F8420020B19BF80000012814D0AF
:1025B00018E00120FFF7D4F94FF41670FDF7C4FFBF
:1025C0002E7044A0FFF74CFFDAF8000001684906BE
:1025D000FCD5C820FDF7B8FF56E00098FFF72CFFA8
:1025E0008BF80090DAF8000001684906FCD5C82095
:1025F0000EE03B48FFF720FF8BF80090DAF8000070
:1026000001684906FCD50098FDF7DBFD4FF4FA7030
:10261000FDF79AFF042028700A20E06038E097F860
:10262000442097F8431097F84200FFF72FFB6168AA
:102630002B4A002088463B1800EB011C401C93F8F5
:102640004230C0B202F80C301028F4D300E006E0AB
:1026500008F10108C4F8048085F8009073E70120B0
:10266000FDF772FF2078401CC0B22070142804D3FC
:102670006078401C607085F800906078032803D370
:10268000667026702E700CE0287850B10428E5D1D1
:102690000120FFF765F9FFF779FB0A20FDF754FFEA
:1026A00051E70F48FDF78DFD00206660FFF758F9F0
:1026B0002670667047E70000380000203C010020CB
:1026C000340000202900002084010020F4010020B3
:1026D000000000205549443F3F3F3F3F3F3F3F0000
:1026E00040000020010202030405060708090A0B46
:1026F0000C0D0E0F10100000000000000000010281
:102700000304060708090000000001020304C8CD05
:10271000D1C7D5CBC7C7B7C5EDB9BCBBCED10101B9
:10272000010101010101010101010101010100009B
:1027300050270008000000204000000090240008FE
:10274000902700084000002008060000A024000890
:102750000000000000000000040000000000000075
:102760000000000000000000010000001000000058
:10277000000000000024F40010030000000000002E
:102780000000000000000000000000000000000049
:04000005080000ED02
:00000001FF
